:020000040800F2
:1000000000000220A1BD0008D5BD0008D5BD000834
:10001000D5BD0008D5BD0008D5BD00080000000012
:10002000000000000000000000000000D5BD000836
:10003000D5BD000800000000D5BD000829EA000871
:10004000D5BD0008D5BD0008D5BD0008D5BD000848
:10005000D5BD0008D5BD0008D5BD0008D5BD000838
:10006000D5BD0008D5BD0008D5BD0008D5BD000828
:10007000D5BD0008D5BD0008D5BD0008D5BD000818
:10008000D5BD0008D5BD0008D5BD0008D5BD000808
:10009000D5BD0008D5BD0008D5BD0008D5BD0008F8
:1000A000D5BD0008D5BD0008D5BD0008D5BD0008E8
:1000B000D5BD0008D5BD0008D5BD0008D5BD0008D8
:1000C000D5BD0008D5BD0008D5BD0008D5BD0008C8
:1000D000D5BD0008D5BD0008D5BD0008D5BD0008B8
:1000E000D5BD0008D5BD0008D5BD0008D5BD0008A8
:1000F000D5BD0008D5BD0008D5BD0008D5BD000898
:10010000D5BD0008D5BD0008D5BD0008D5BD000887
:10011000D5BD0008D5BD0008D5BD0008D5BD000877
:10012000D5BD0008D5BD0008D5BD0008D5BD000867
:10013000D5BD00080000000000000000D5BD00088B
:10014000D5BD0008D5BD0008D5BD0008D5BD000847
:10015000D5BD0008D5BD0008D5BD0008D5BD000837
:10016000D5BD0008D5BD0008D5BD0008D5BD000827
:10017000D5BD0008D5BD0008D5BD000800000000B1
:1001800000000000D5BD00080000000000000000D5
:10019000D5BD00080000000000000000D5BD00082B
:1001A000000000000000000000000000D5BD0008B5
:1001B000D5BD0008D5BD0008D5BD0008D5BD0008D7
:1001C000D5BD000810B5054C237833B9044B13B1E5
:1001D0000448AFF300800123237010BD980B00206A
:1001E00000000000B0D70208084B10B51BB1084949
:1001F0000848AFF300800848036803B910BD074BF7
:10020000002BFBD0BDE81040184700BF00000000E5
:100210009C0B0020B0D70208940B002000000000C7
:10022000154B002B08BF134B9D46A3F5803A0021C8
:100230008B460F461348144A121A1EF099FF0F4BB3
:10024000002B00D098470E4B002B00D09847002081
:10025000002104000D000D48002802D00C48AFF327
:1002600000801EF09DFA2000290012F0B1F901F083
:1002700027FA00BF00000800000002200000000074
:1002800000000000980B00205C130020000000001C
:100290000000000080B582B000AF78600D4A7B6836
:1002A0001A607B6800225A607B6800229A607B6833
:1002B0000022DA6001F018FE02467B681A617B6852
:1002C0001B690549184600F0AFF87B6818460837E7
:1002D000BD4680BDA0AE02082503000880B582B0EF
:1002E00000AF786039600D4A7B681A607B68002235
:1002F0005A607B6800229A607B680022DA607B6823
:100300003A681A617B681B690549184600F08CF849
:100310007B6818460837BD4680BD00BFA0AE020806
:100320002503000880B584B000AF78607B68FB606F
:10033000FB681B6808331B68F868984700BF1037D4
:10034000BD4680BD80B582B000AF7860084A7B684A
:100350001A60786800F030F80023002B02D078682B
:1003600001F0FEFA7B6818460837BD4680BD00BF25
:10037000A0AE020880B582B000AF78607868FFF761
:10038000E1FF786801F0ECFA7B6818460837BD4653
:1003900080BD00BF80B582B000AF786039607B68F7
:1003A00018697B68191D7B683A6800F091F800BFF6
:1003B0000837BD4680BD00BF80B582B000AF786011
:1003C0007B681A697B6804331946104600F0C0F850
:1003D00000BF0837BD4680BD80B483B000AF7860F1
:1003E0007B6818460C37BD4680BC704780B483B02C
:1003F00000AF78607B6818460C37BD4680BC7047FC
:1004000080B483B000AF786000BF0C37BD4680BCBD
:10041000704700BF80B483B000AF786000BF0C3776
:10042000BD4680BC704700BF80B582B000AF786029
:1004300039607B681B681B6898477B685B683A6813
:100440001A6000BF0837BD4680BD00BF90B585B0BB
:1004500000AF78607B681B68DB6898477B685B68E7
:100460005B68002B04D17B681B689B6898472CE075
:100470007B685B685B681C687B681B685B68984787
:100480000346E31A002B17DC7B685B685B68FB6044
:100490007B685B687A685268526892685A607B68C9
:1004A0005B681B68002BD9D07B685B681B68FA68A7
:1004B000526810469847D1E77B681B681B697A68C9
:1004C000526852681268104698471437BD4690BD6E
:1004D00080B586B000AFF860B9607A603B6011F01B
:1004E00013FEBB687A681A60BB683A685A600023DA
:1004F0007B61FB685B685B683B610AE03B691B688A
:100500007A68D31A002B08DB3B697B613B699B68E7
:100510003B613B69002BF1D100E000BF7B69002B00
:1005200009D1FB685B68BA685A60FB681B681B6985
:100530007868984702E07B69BA689A60BB683A6954
:100540009A6011F029FE00BF1837BD4680BD00BF7C
:1005500080B584B000AF7860396011F0D5FD7B685C
:100560005B685A683B689A4218D17B685B683A6856
:1005700092685A607B685B685B68002B04D17B687B
:100580001B689B6898471EE07B681B681B697A683C
:100590005268526812681046984714E07B685B689E
:1005A0005B68FB600CE0FB689A683B689A4204D188
:1005B0003B689A68FB689A6005E0FB689B68FB6093
:1005C000FB68002BEFD111F0E7FD00BF1037BD46EF
:1005D00080BD00BF80B582B000AF78607B681B68CB
:1005E0005B689847034618460837BD4680BD00BF84
:1005F00080B584B000AF786039600023FB6011F0F3
:1006000083FD7B685B685B68002B07D07B685B6859
:100610005B681A683B681A600123FB6011F0BCFD3F
:10062000FB6818461037BD4680BD00BF80B58CB052
:1006300000AF78600023FB627B68072B00F29C8090
:1006400001A252F823F000BF690600088B060008DB
:10065000AD060008CF060008F106000813070008E1
:100660003507000857070008484BFB620023BB62B0
:10067000474A474B1B6B43F001031363444B1B6B0F
:1006800003F00103BB62BB6A7AE0424BFB620023CA
:100690007B623F4A3E4B1B6B43F0020313633C4BB0
:1006A0001B6B03F002037B627B6A69E03A4BFB62DF
:1006B00000233B62364A364B1B6B43F00403136343
:1006C000334B1B6B03F004033B623B6A58E0334B34
:1006D000FB620023FB612E4A2D4B1B6B43F008038A
:1006E00013632B4B1B6B03F00803FB61FB6947E0B3
:1006F0002B4BFB620023BB61254A254B1B6B43F050
:1007000010031363224B1B6B03F01003BB61BB6927
:1007100036E0244BFB6200237B611D4A1C4B1B6BA4
:1007200043F0200313631A4B1B6B03F020037B6120
:100730007B6925E01C4BFB6200233B61144A144B90
:100740001B6B43F040031363114B1B6B03F040031F
:100750003B613B6914E0154BFB620023FB600C4AD4
:100760000B4B1B6B43F080031363094B1B6B03F0B4
:100770008003FB60FB6803E00D480AF065FB00BFE7
:10078000FB6A18463037BD4680BD00BF00000240FE
:10079000003802400004024000080240000C024001
:1007A000001002400014024000180240001C0240E9
:1007B000FCAE020880B58EB000AF03463960FB8006
:1007C000B7F90630B3F1FF3F04D181221D491E481D
:1007D00010F098FA3B6803F00F037B633B681B1132
:1007E00003F007033B633B68DB1103F00F03FB627D
:1007F000B7F906301B0903F00F03BB62FB8803F057
:100800000F037B62B86AFFF711FF38623B6AFB6136
:1008100001227B6A02FA03F3BB600C4A7B6B52F83D
:100820002330FB603B6B3B6103237B61FB6ABB6155
:1008300007F108031946F86914F07AFD00BF38374C
:10084000BD4680BD20AF02088CAF0208C8AE0208CA
:1008500080B588B000AF03460A46FB8013467B7123
:10086000B7F90630B3F1FF3F04D1A62219491A485F
:1008700010F048FAB7F906301B0903F00F03BB610B
:10088000FB8803F00F037B61B869FFF7CFFE386187
:100890003B69FB607B79FB61FB69022B01D900237B
:1008A000FB61FB68DA687B695B00032101FA03F3F3
:1008B000DB431A40FB68DA60FB68DA687B695B003F
:1008C000F96901FA03F31A43FB68DA6000BF2037C5
:1008D000BD4680BD20AF02088CAF020880B588B04D
:1008E00000AF03463960FB80B7F906301B0903F0FF
:1008F0000F03FB61FB8803F00F03BB61F869FFF78F
:1009000095FE03467B617B69DB683B61BB695B00ED
:100910003A6922FA03F303F00303FB60FB681B014F
:1009200003F070023B6803F00F0313431A46B7F954
:10093000063011461846FFF73DFF00BF2037BD4681
:1009400080BD00BF80B400AF00BFBD4680BC704713
:1009500080B400AF00BFBD4680BC704780B584B096
:1009600000AFF860B9601346FB71164AFB681A6065
:10097000FB6800225A60FB68BA689A60FB68FA79E3
:100980001A73114800F01AF903461846FFF738FDAC
:10099000BB68002B07D00D4B1A68FB685A600B4AE6
:1009A000FB68136002E0FB6800225A60064800F012
:1009B00005F903461846FFF72DFDFB68184610376A
:1009C000BD4680BD14B00208B80B0020B40B002057
:1009D00080B584B000AF78601C4A7B681A601C4800
:1009E00000F0ECF803461846FFF70AFD7B689B68A9
:1009F000002B19D0174B1A687B689A4204D17B6888
:100A00005B68144A13600FE0124B1B68FB60FB68C5
:100A10005A687B689A4203D0FB685B68FB60F6E724
:100A20007B685A68FB685A60094800F0C7F80346BB
:100A30001846FFF7EFFC0023002B02D0786800F087
:100A40008FFF7B6818461037BD4680BD14B0020882
:100A5000B80B0020B40B002080B582B000AF7860E6
:100A60007868FFF7B5FF786800F07AFF7B68184672
:100A70000837BD4680BD00BF80B584B000AF786048
:100A800039601E4800F09AF803461846FFF7B8FC94
:100A90001B4B1B68FB60FB68002B23D0FB689B682B
:100AA000002B1BD0FB689B683A68796818461FF0DA
:100AB00015FA0346002B11D1FB689B6818461FF0FE
:100AC0009FF902463B689A4208D10C4800F076F83C
:100AD00003461846FFF79EFCFB680BE0FB685B686B
:100AE000FB60D8E7054800F069F803461846FFF7B1
:100AF00091FC002318461037BD4680BDB80B00207E
:100B0000B40B002080B584B000AF7860174800F0C7
:100B100055F803461846FFF773FC154B1B68FB603E
:100B20000023BB60FB68002B13D0BA687B689A4235
:100B300008D10E4800F042F803461846FFF76AFC59
:100B4000FB680EE0BB680133BB60FB685B68FB6061
:100B5000E8E7064800F032F803461846FFF75AFC6B
:100B6000002318461037BD4680BD00BFB80B0020DB
:100B7000B40B002080B483B000AF78607B689B68C2
:100B800018460C37BD4680BC704700BF80B483B0A8
:100B900000AF78607B681B7B18460C37BD4680BC75
:100BA000704700BF80B483B000AF786039603B68A5
:100BB00018460C37BD4680BC704700BF80B582B078
:100BC00000AF7860786800F005F8034618460837EB
:100BD000BD4680BD90B583B000AF78607B681B6870
:100BE000002B18D1FFF7AEFE7B681B68002B10D1DD
:100BF0007B68043319460120FFF7D4FF0446002C1C
:100C000004D02046FFF7E8FB224600E022467B683E
:100C10001A60FFF79DFE7B681A687B6804339A426E
:100C200004D059220449054810F06CF87B681B6811
:100C300018460C37BD4690BDA0AF0208F8AF0208B9
:100C400080B582B000AF03463960FB80B7F906304B
:100C5000B3F1FF3F23D018E03B68B3F90030B7F998
:100C600006209A420ED13B689A68B7F906301146C1
:100C70001846FFF79FFDB7F9063000211846FFF729
:100C8000E7FD0DE03B680C333B603B68B3F9003097
:100C9000B3F1FF3FE0D104480AF0D6F800E000BF0E
:100CA0000837BD4680BD00BF38B0020880B582B0AD
:100CB00000AF786039607A683B689A4201D17B68FE
:100CC00010E07B68B3F1FF3F01D13B680AE03B686D
:100CD000B3F1FF3F01D17B6804E004480AF0B4F8A7
:100CE0004FF0FF3318460837BD4680BD4CB00208B0
:100CF00080B483B000AF03463960FB800CE03B68F2
:100D0000B3F90030B7F906209A4202D13B685B681C
:100D10000AE03B680C333B603B68B3F90030B3F149
:100D2000FF3FECD14FF0FF3318460C37BD4680BC77
:100D3000704700BF80B584B000AF03463960FB80C8
:100D40004FF0FF33FB60B7F90630B3F1FF3F02D13C
:100D50004FF0FF330EE0B7F9063039681846FFF759
:100D6000C7FFF860FB68B3F1FF3F02D103480AF008
:100D70006BF8FB6818461037BD4680BD60B00208AE
:100D800080B483B000AF03463960FB800CE03B6861
:100D9000B3F90030B7F906209A4202D13B689B684C
:100DA0000AE03B680C333B603B68B3F90030B3F1B9
:100DB000FF3FECD14FF0FF3318460C37BD4680BCE7
:100DC000704700BF80B584B000AF03463960FB8038
:100DD0004FF0FF33FB60B7F90630B3F1FF3F02D1AC
:100DE0004FF0FF330EE0B7F9063039681846FFF7C9
:100DF000C7FFF860FB68B3F1FF3F02D103480AF078
:100E000023F8FB6818461037BD4680BD80B0020845
:100E100080B586B000AF786039607B6800221A60C8
:100E20007B6800225A603B681B782F2B2ED13B68D1
:100E300001331B78002B29D03B6801333B617B6871
:100E40003A691A6000237B617B681B681B78FB731F
:100E5000FB7B2F2B05D17B681B685A1C7B681A60B3
:100E60000CE0FB7B002B08D07B6901337B617B6846
:100E70001B685A1C7B681A60E6E700BF7B6919464D
:100E80003869FFF7F9FD02467B685A607B681846AF
:100E90001837BD4680BD00BF80B483B000AF786016
:100EA0007B681B6818460C37BD4680BC704700BF86
:100EB00080B582B000AF78607B685B68002B01D1A1
:100EC00000230AE07B685B681846FFF75FFE034675
:100ED000012B0CBF01230023DBB218460837BD46A7
:100EE00080BD00BF80B582B000AF78607868FFF742
:100EF000DFFF0346002B02D07B685B6800E0002325
:100F000018460837BD4680BD80B582B000AF786016
:100F10007B685B68002B01D100230AE07B685B687B
:100F20001846FFF733FE0346002B0CBF01230023B6
:100F3000DBB218460837BD4680BD00BF80B582B021
:100F400000AF78607868FFF7DFFF0346002B09D019
:100F50007B685B68002B03D07B685B68043B02E026
:100F6000002300E0002318460837BD4680BD00BFBF
:100F700080B483B000AF78607B685B68002B14BFDF
:100F800001230023DBB218460C37BD4680BC7047F6
:100F900080B400AF00BFBD4680BC704780B400AFD6
:100FA00000BFBD4680BC704780B584B000AF78609C
:100FB000184A7B681A601848FFF700FE0346184677
:100FC000FFF71EFA0023FB604022FB689A420FD90C
:100FD000124AFB6852F823207B689A4204D10F4AD8
:100FE000FB68002142F82310FB680133FB60EBE74C
:100FF0000948FFF7E3FD03461846FFF70BFA002305
:10100000002B02D0786800F0ABFC7B6818461037E4
:10101000BD4680BD30B20208C80C0020C80B0020BD
:1010200080B582B000AF78607868FFF7BDFF786860
:1010300000F096FC7B6818460837BD4680BD00BFAF
:1010400080B500AF054B1B68002B05D103220221A0
:10105000034810F013F900E000BF80BD7C0F0020B2
:101060003813002080B485B000AF78607B68FB60E7
:10107000FB6818461437BD4680BC704780B400AF8B
:1010800000BFBD4680BC704790B58BB000AF7860A4
:101090003960634978681EF047FD0346002B03D191
:1010A000FFF7CEFF0023B7E05E4978681EF03CFDF5
:1010B0000346002B03D1FFF7C3FF0123ACE05A49DD
:1010C00078681EF031FD0346002B03D1FFF7B8FF0F
:1010D0000223A1E05548FFF771FD03461846FFF7CC
:1010E0008FF900237B6240227B6A9A420AD9504AD8
:1010F0007B6A52F82330002B03D07B6A01337B627A
:10110000F1E700BF40227B6A9A4209D84748FFF7BF
:1011100055FD03461846FFF77DF94FF0FF337BE09E
:10112000434A7B6A4FF0FF3142F823103F48FFF7F4
:1011300045FD03461846FFF76DF97B681B783A2B8F
:1011400009D107F114031A463A4978681EF06EFC7B
:101150007B693B624EE007F10C0379681846FFF7A4
:1011600057FE07F10C031846FFF702FF034683F012
:101170000103DBB2002B07D02D4A7B6A002142F825
:1011800023104FF0FF3347E007F10C031846FFF739
:10119000BBFE0346002B07D007F10C031846FFF7F0
:1011A000CDFE03463B6225E007F10C031846FFF72E
:1011B00099FE0346FB61FB69002B07D11C4A7B6A41
:1011C000002142F823104FF0FF3325E03868FFF785
:1011D00049FFB861FB691B6808331C6807F10C0301
:1011E0001846FFF759FE0346BA691946F869A04741
:1011F00003463B623B6A002B07D10D4A7B6A002104
:1012000042F823104FF0FF3306E009497B6A3A6A3F
:1012100041F823207B6A033318462C37BD4690BD26
:10122000A0B00208A8B00208B0B00208C80C0020A4
:10123000C80B0020B8B0020880B584B000AF786059
:101240007B68022B01DC002318E07B68033B0D4A1E
:1012500052F82330FB607B68033B0A4A002142F8C6
:101260002310FB68002B02D14FF0FF3306E0FB6830
:101270001B6804331B68F868984703461846103704
:10128000BD4680BDC80B002080B588B000AFF860B7
:10129000B9607A603B60FB68022B1ADC1A4B1B6852
:1012A000002B01D1FFF7CCFE0023BB61BA697B683C
:1012B0009A420BD2BA68BB6913441B78194613488B
:1012C00010F0AAFBBB690133BB61EFE77B68FB61F0
:1012D00014E0FB68033B0E4A52F823307B617B69C4
:1012E000002B02D14FF0FF3309E07B691B681B68BC
:1012F0007A68B968786998470346FB61FB691846C4
:101300002037BD4680BD00BF7C0F00203813002071
:10131000C80B002080B586B000AFF860B9607A6075
:101320003B60FB68022B0FDC154B1B68002B01D1C7
:10133000FFF786FE134810F051FB0346DAB2BB6894
:101340001A7001237B6115E0FB68033B0E4A52F8DB
:1013500023303B613B69002B02D14FF0FF330AE0A1
:101360003B691B6808331B687A68B9683869984715
:1013700003467B617B6918461837BD4680BD00BFB8
:101380007C0F002038130020C80B002080B584B0EB
:1013900000AF78607B68022B01DC012312E07B68E0
:1013A000033B0A4A52F82330FB60FB68002B02D152
:1013B0004FF0FF3306E0FB681B680C331B68F868CE
:1013C0009847034618461037BD4680BDC80B00201D
:1013D00080B586B000AFF860B9607A60FB68022B18
:1013E00001DC002314E0FB68033B0B4A52F8233076
:1013F0007B617B69002B02D14FF0FF3308E07B69F2
:101400001B6810331B687A68B96878699847034687
:1014100018461837BD4680BDC80B002080B582B085
:1014200000AF786039607B68012B05D07B68022BA8
:1014300002D07B68002B05D13B684FF400525A6004
:10144000002306E01CF0DEF90246092313604FF08A
:10145000FF3318460837BD4680BD00BF90B587B042
:1014600000AF786007F10C0379681846FFF7D0FCED
:1014700007F10C031846FFF735FD03467B617B69D6
:10148000002B02D14FF0FF330DE07B691B680C335A
:101490001C6807F10C031846FFF7FEFC03461946CB
:1014A0007869A047034618461C37BD4690BD00BF6B
:1014B000B0B588B000AF7860396007F11003796883
:1014C0001846FFF7A5FC07F1080339681846FFF72F
:1014D0009FFC07F110031846FFF704FD0346FB616C
:1014E00007F108031846FFF7FDFC0346BB61FA69E4
:1014F000BB699A4202D1FB69002B02D14FF0FF3346
:1015000014E0FB691B6810331C6807F110031846D0
:10151000FFF7C2FC054607F108031846FFF7BCFCBD
:1015200003461A462946F869A0470346184620375D
:10153000BD46B0BD80B483B000AF786000231846CC
:101540000C37BD4680BC704780B400AF00231846FE
:10155000BD4680BC704700BF90B587B000AF7860D3
:101560007B681B782F2B08D17B6801331B78002BFD
:1015700003D10DF09FFA03461FE007F10C037968D1
:101580001846FFF745FC07F10C031846FFF7AAFCC5
:1015900003467B617B69002B01D100230DE07B6951
:1015A0001B6814331C6807F10C031846FFF774FC22
:1015B000034619467869A047034618461C37BD46BE
:1015C00090BD00BF80B582B000AF78607B681B68BB
:1015D00004331B6878689847034618460837BD46A9
:1015E00080BD00BF80B582B000AF78607B681B68AB
:1015F0001B6878689847034618460837BD4680BD83
:1016000080B582B000AF78607B681B6808331B68C8
:101610007868984700BF0837BD4680BD80B582B066
:1016200000AF78607B681B680C331B68786898474C
:10163000034618460837BD4680BD00BF80B582B05E
:1016400000AF786039607B681B6810331B683968AD
:101650007868984700BF0837BD4680BD90B587B011
:1016600000AF7860396007F10C0379681846FFF71E
:10167000CFFB07F10C031846FFF734FC03467B61F0
:101680007B69002B02D14FF0FF330EE07B691B68B2
:1016900018331C6807F10C031846FFF7FDFB0346DF
:1016A0003A6819467869A047034618461C37BD4674
:1016B00090BD00BF80B400AF00BFBD4680BC704786
:1016C00080B582B000AF78607B68002B01D009F054
:1016D0005DFBFEE780B582B000AF786000217868DE
:1016E0001EF084F800BF0837BD4680BD80B582B0CB
:1016F00000AF786078681CF0A1F9034618460837F7
:10170000BD4680BD80B584B000AFF860B9607A6036
:101710007A68B968F8681CF001FA03461846103771
:10172000BD4680BD80B483B000AF786000BF0C3789
:10173000BD4680BC704700BF80B483B000AF786006
:1017400000BF0C37BD4680BC704700BF80B483B07B
:1017500000AF786000BF0C37BD4680BC704700BF4B
:1017600080B483B000AF786000BF0C37BD4680BC4A
:10177000704700BF80B582B000AF78607868FFF72F
:10178000D1FF00BF0837BD4680BD00BF80B582B025
:1017900000AF78607868FFF7CFFF00BF0837BD461D
:1017A00080BD00BF80B582B000AF78607868FFF779
:1017B000CDFF00BF0837BD4680BD00BF80B582B0F9
:1017C00000AF78607868FFF7CBFF00BF0837BD46F1
:1017D00080BD00BF80B584B000AF78607B68FB60DF
:1017E000FB681B7803F00303012B01D100231FE0EA
:1017F000FFF7CEFBFB681B7803F00303012B03D13B
:10180000FFF7CCFB002313E0FB681B7803F0030316
:10181000002B05D040F22132074908480FF072FA38
:10182000FB681B7843F00203DAB2FB681A700123ED
:1018300018461037BD4680BDBCB0020814B102087E
:1018400080B584B000AF78607B68FB60FB681B7874
:1018500003F00303022B05D040F229320A490B485A
:101860000FF050FAFB681B785BB223F003035BB206
:1018700043F001035BB2DAB2FB681A70FFF78EFB2C
:1018800000BF1037BD4680BDBCB002083CB10208A5
:1018900080B584B000AF78607B68FB60FB681B7824
:1018A00003F00303022B05D040F231320849094806
:1018B0000FF028FAFB681B7823F00203DAB2FB680A
:1018C0001A70FFF76BFB00BF1037BD4680BD00BF2D
:1018D000BCB002083CB1020880B584B000AF7860AB
:1018E00078681CF0F9FF0346FB60FB68002B02D10F
:1018F000094809F0A9FAFB680AE002460B46B3F171
:10190000FF3F01D015F00AFD1346184614F0CEFB38
:1019100018461037BD4680BD7CB1020880B584B042
:1019200000AF786078681CF0D7FF0346FB60FB6867
:10193000002B02D1094809F087FAFB680AE0024649
:101940000B46B3F1FF3F01D015F0E8FC13461846F3
:1019500014F0ACFB18461037BD4680BD9CB10208A0
:1019600080B582B000AF78607B68002B02D07868C9
:101970001CF0BAFF00BF0837BD4680BD80B582B0FD
:1019800000AF78607B68002B02D078681CF0ACFF59
:1019900000BF0837BD4680BD80B584B000AF786019
:1019A0007B681B6824331B68786898477B681B68D2
:1019B00010331B6801220021786898470346FB60BA
:1019C000FB68B3F1FF3F08D17B681B6828331B68B5
:1019D000786898474FF0FF3318E07B681B68103336
:1019E0001B6802220021786898470346BB607B6829
:1019F0001B6810331B680022F968786898477B6879
:101A00001B6828331B6878689847BB6818461037EE
:101A1000BD4680BD80B483B000AF786000BF0C3796
:101A2000BD4680BC704700BF80B483B000AF786013
:101A300000BF0C37BD4680BC704700BF80B584B086
:101A400000AF0023FB604FF40073BB60BB6893FAE8
:101A5000A3F37B607B68B3FA83F31A460F4B1344FE
:101A60009B001A460123136012F004FEF86009E09F
:101A700012F000FE0246FB68D31AB3F57A7F01D953
:101A8000032306E0064B5B6803F00803002BEFD04E
:101A9000002318461037BD4680BD00BF208083104C
:101AA0000070004080B584B000AF0023FB604FF4AD
:101AB0000073BB60BB6893FAA3F37B607B68B3FAE7
:101AC00083F31A460F4B13449B001A4600231360FE
:101AD00012F0D0FDF86009E012F0CCFD0246FB6880
:101AE000D31AB3F57A7F01D9032306E0064B5B686E
:101AF00003F00803002BEFD1002318461037BD4632
:101B000080BD00BF208083100070004080B483B08F
:101B100000AF4FF400737B607B6893FAA3F33B60E4
:101B20003B68B3FA83F303F1845303F560339B00FE
:101B30001A460123136000BF0C37BD4680BC7047B6
:101B400080B483B000AF4FF400737B607B6893FA7E
:101B5000A3F33B603B68B3FA83F303F1845303F5CB
:101B600060339B001A460023136000BF0C37BD464C
:101B700080BC704780B400AF034B1B6803F4404344
:101B80001846BD4680BC70470070004080B586B0E6
:101B900000AF786000237B6100233B61344A344B03
:101BA0001B6C43F080531364314B1B6C03F0805368
:101BB0003B613B692E4B9B6803F00C03082B50D014
:101BC0002C4B00221A6012F055FD786108E012F0EB
:101BD00051FD02467B69D31A022B01D9032343E04E
:101BE000234B1B6803F00073002BF0D10023FB6034
:101BF0002149214B1B6823F440427B6813430B604F
:101C00001D4B1B6803F44043FB60FB68194B01222A
:101C10001A6012F02FFD786108E012F02BFD0246E9
:101C20007B69D31A022B01D903231DE0104B1B68DB
:101C300003F00073002BF0D012F01CFD786109E076
:101C400012F018FD02467B69D31AB3F57A7F01D9E9
:101C5000032309E0084B5B6803F48043002BEFD0BB
:101C600001E0012300E0002318461837BD4680BD7F
:101C700000380240600047420070004080B586B0E6
:101C800000AF00237B6100233B602E4A2D4B1B6C71
:101C900043F0805313642B4B1B6C03F080533B6069
:101CA0003B684FF48033FB60FB6893FAA3F3BB609F
:101CB000BB68B3FA83F303F1845303F560339B00ED
:101CC0001A460123136012F0D5FC786109E012F086
:101CD000D1FC02467B69D31AB3F57A7F01D903237D
:101CE0002CE0194B5B6803F48033002BEFD04FF4EA
:101CF00000333B613B6993FAA3F37B607B68B3FAE3
:101D000083F303F1845303F560339B001A460123E8
:101D1000136012F0AFFC786109E012F0ABFC0246F0
:101D20007B69D31AB3F57A7F01D9032306E0064B0A
:101D30005B6803F40033002BEFD0002318461837FC
:101D4000BD4680BD003802400070004080B586B0BE
:101D500000AF00237B6100233B602E4A2D4B1B6CA0
:101D600043F0805313642B4B1B6C03F080533B6098
:101D70003B684FF40033FB60FB6893FAA3F3BB604E
:101D8000BB68B3FA83F303F1845303F560339B001C
:101D90001A460023136012F06DFC786109E012F01E
:101DA00069FC02467B69D31AB3F57A7F01D9032314
:101DB0002CE0194B5B6803F40033002BEFD14FF498
:101DC00080333B613B6993FAA3F37B607B68B3FA92
:101DD00083F303F1845303F560339B001A46002319
:101DE000136012F047FC786109E012F043FC0246F0
:101DF0007B69D31AB3F57A7F01D9032306E0064B3A
:101E00005B6803F48033002BEFD1002318461837AA
:101E1000BD4680BD003802400070004080B586B0ED
:101E200000AF78600B46FB7000237B6100233B61B1
:101E30000023FB60294A294B1B6C43F08053136439
:101E4000264B1B6C03F08053FB60FB68244A244B39
:101E50005B6843F440235360214A214B1B6843F4E1
:101E60004023136012F006FC386109E012F002FC16
:101E700002463B69D31AB3F57A7F01D9032329E0DF
:101E8000174B5B6803F44023B3F5402FEED0144B9F
:101E90001B687B617B6923F4406323F003037B6150
:101EA0007A697B6813437B610D4A7B6913600D4A35
:101EB0000C4B1B6943F004031361FB78012B01D128
:101EC00030BF00E020BF074A064B1B6923F0040324
:101ED0001361002318461837BD4680BD0038024004
:101EE0000070004000ED00E080B400AF024B1846E7
:101EF000BD4680BC704700BF8CB2020880B500AF01
:101F00000248FEF7A3FA00BF80BD00BF8CB20208F2
:101F100080B483B000AF786039607B6893F83D305F
:101F2000DBB2202B29D17B68242283F83D207B68FB
:101F30001B687A681268126822F001021A607B68D6
:101F40001B687A681268526A22F010025A627B6833
:101F50001B687A681268516A3A680A435A627B6859
:101F60001B687A681268126842F001021A607B6886
:101F7000202283F83D20002300E0022318460C377E
:101F8000BD4680BC704700BF80B485B000AF7860AC
:101F900039600023FB817B6893F83D30DBB2202B56
:101FA0002AD17B68242283F83D207B681B687A68ED
:101FB0001268126822F001021A607B681B685B6A73
:101FC000FB81FB8923F00F03FB813B689AB2FB89FD
:101FD0001343FB817B681B68FA895A627B681B6824
:101FE0007A681268126842F001021A607B68202247
:101FF00083F83D20002300E0022318461437BD4635
:1020000080BC704780B584B000AF78600023FB606F
:102010000023BB607B68002B01D10123C8E07B68F3
:1020200093F83D30DBB2002B06D17B68002283F8A9
:102030003C20786813F062FF7B68242283F83D20FF
:102040007B681B687A681268126822F001021A60C5
:1020500013F028F8B860BB68574AA2FB03239B0C17
:10206000FB607B681B68FA685A607B681A687B684B
:102070005B6852498B4202D8FB68013309E0FB6878
:102080004FF4967101FB03F34D49A1FB03139B0928
:10209000013313627B6819687B685B68474A934227
:1020A00012D87B685B685B00BA68B2FBF3F3C3F3DA
:1020B0000B03032B06D97B685B685B00BA68B2FB35
:1020C000F3F345E0042343E07B689B68002B0FD1CA
:1020D0007B685A6813465B001344BA68B2FBF3F39B
:1020E000C3F30B03002B0CBF01230023DBB210E072
:1020F0007B685A6813469B0013449A001344BA68DD
:10210000B2FBF3F3C3F30B03002B0CBF012300233B
:10211000DBB2002B01D001231AE07B689B68002B07
:102120000AD17B685A6813465B001344BA68B2FB55
:10213000F3F343F400430BE07B685A6813469B00BB
:1021400013449A001344BA68B2FBF3F343F44043D8
:10215000CB617B681B687A68D1697A68126A0A4326
:102160001A607B681B687A6811697A68D2680A43CA
:102170009A607B681B687A6851697A6892690A4339
:10218000DA607B681B687A681268126842F00102A4
:102190001A607B6800221A647B68202283F83D2045
:1021A0007B6800221A637B68002283F83E200023AC
:1021B00018461037BD4680BD83DE1B43A086010054
:1021C000D34D621080B582B000AF78607B68002B81
:1021D00001D1012321E07B68242283F83D207B6824
:1021E0001B687A681268126822F001021A60786827
:1021F00013F0B6FE7B6800221A647B68002283F825
:102200003D207B6800221A637B68002283F83E2011
:102210007B68002283F83C20002318460837BD461F
:1022200080BD00BF80B483B000AF786000BF0C37C2
:10223000BD4680BC704700BF80B483B000AF7860FB
:1022400000BF0C37BD4680BC704700BF80B588B06A
:1022500002AFF8607A601A460B467B8113463B81D9
:1022600000237B6112F006FA7861FB6893F83D3039
:10227000DBB2202B40F0BA807B6900931923012246
:102280005D49F86804F078F90346002B01D0022379
:10229000ADE0FB6893F83C30012B01D10223A6E0AE
:1022A000FB68012283F83C20FB681B68FA6812680F
:1022B000126822F400621A60FB68212283F83D2034
:1022C000FB68102283F83E20FB6800221A64FB683A
:1022D0004A4ADA6279897B693A6AF86803F0ACFDA8
:1022E0000346002B0FD0FB681B6C042B05D1FB6849
:1022F000002283F83C20012379E0FB68002283F868
:102300003C20032373E000233B61FB681B685B698F
:102310003B61FB681B689B693B613B694DE07A69E7
:10232000396AF86804F0E4F90346002B0FD0FB6823
:102330001B6C042B09D1FB681B68FA6812681268D1
:1023400042F400721A60012351E003234FE0FB685E
:102350001A687B68591C79601B7813613B89013BC3
:102360003B81FB681B685B6903F00403002B0CD006
:102370003B89002B09D0FB681A687B68591C79607F
:102380001B7813613B89013B3B817A69396AF868A4
:1023900004F0ECF90346002B0FD0FB681B6C042BF8
:1023A00009D1FB681B68FA681268126842F400726F
:1023B0001A6001231BE0032319E03B89002BAED1F7
:1023C000FB681B68FA681268126842F400721A60AF
:1023D000FB68202283F83D20FB68002283F83E2022
:1023E000FB68002283F83C20002300E0022318460B
:1023F0001837BD4680BD00BF020010000000FFFF7F
:1024000080B58CB002AFF8607A601A460B467B81CB
:1024100013463B8100237B6212F02CF97862FB6843
:1024200093F83D30DBB2202B40F094817B6A00931F
:10243000192301229549F86804F09EF80346002B01
:1024400001D0022387E1FB6893F83C30012B01D1D6
:10245000022380E1FB68012283F83C20FB681B68B3
:10246000FA681268126822F400621A60FB6822227D
:1024700083F83D20FB68102283F83E20FB68002291
:102480001A64FB68824ADA6279897B6A3A6BF86877
:1024900003F054FD0346002B0FD0FB681B6C042B8C
:1024A00005D1FB68002283F83C20012353E1FB683F
:1024B000002283F83C2003234DE13B89002B13D1FC
:1024C00000233B62FB681B685B693B62FB681B681F
:1024D0009B693B623B6AFB681B68FA68126812687A
:1024E00042F400721A6023E13B89012B1BD1FB6887
:1024F0001B68FA681268126822F480621A6000236E
:10250000FB61FB681B685B69FB61FB681B689B697F
:10251000FB61FB69FB681B68FA681268126842F489
:1025200000721A6004E13B89022B1BD1FB681B6817
:10253000FA681268126822F480621A60FB681B68ED
:10254000FA681268126842F400621A600023BB61E4
:10255000FB681B685B69BB61FB681B689B69BB61AF
:10256000BB69E5E0FB681B68FA681268126842F410
:1025700080621A6000237B61FB681B685B697B617A
:10258000FB681B689B697B617B69D1E03B89032BFE
:1025900000F2A1803B89012B1BD17A6A396BF86864
:1025A00004F05CF90346002B07D0FB681B6C202B62
:1025B00001D10323CFE00123CDE07B685A1C7A6070
:1025C000FA6812681269D2B21A703B89013B3B81EA
:1025D000AEE03B89022B2BD17B6A00933B6B002240
:1025E0002C49F86803F0C8FF0346002B01D00323F1
:1025F000B1E0FB681B68FA681268126842F4007266
:102600001A607B685A1C7A60FA6812681269D2B242
:102610001A703B89013B3B817B685A1C7A60FA68DF
:1026200012681269D2B21A703B89013B3B817FE08C
:102630007B6A00933B6B00221649F86803F09CFF0D
:102640000346002B01D0032385E0FB681B68FA6872
:102650001268126822F480621A607B685A1C7A60E1
:10266000FA6812681269D2B21A703B89013B3B8149
:102670007B6A00933B6B00220649F86803F07CFFFD
:102680000346002B08D0032365E000BF02001000C2
:102690000000FFFF04000100FB681B68FA68126875
:1026A000126842F400721A607B685A1C7A60FA68F9
:1026B00012681269D2B21A703B89013B3B817B6878
:1026C0005A1C7A60FA6812681269D2B21A703B8991
:1026D000013B3B812CE07A6A396BF86804F0BEF864
:1026E0000346002B07D0FB681B6C202B01D1032372
:1026F00031E001232FE07B685A1C7A60FA68126887
:102700001269D2B21A703B89013B3B81FB681B689E
:102710005B6903F00403002B0AD07B685A1C7A60C3
:10272000FA6812681269D2B21A703B89013B3B8188
:102730003B89002B7FF42AAFFB68202283F83D20E1
:10274000FB68002283F83E20FB68002283F83C20CF
:10275000002300E0022318462837BD4680BD00BF95
:1027600080B58AB002AFF860B9603B601346FB8069
:102770000023FB6111F07EFFF861FB6893F83D30A8
:10278000DBB2202B40F0D680BB68002B02D0FB8848
:10279000002B01D10123CEE0FB6900931923012214
:1027A0006749F86803F0E8FE0346002B01D00223D6
:1027B000C1E0FB6893F83C30012B01D10223BAE061
:1027C000FB68012283F83C20FB681B68FA681268EA
:1027D000126822F400621A60FB68212283F83D200F
:1027E000FB68202283F83E20FB6800221A64FB6805
:1027F000544ADA62FB681B68FA681268126842F48D
:1028000080621A60FB6900933B6800224E49F868B9
:1028100003F0B2FE0346002B01D003238BE000231C
:10282000BB61FB681B685B69BB61FB681B689B69DC
:10283000BB61BB69FB681B69B3F5404F4ED1FB69B7
:1028400000933B6800224049F86803F095FE034678
:10285000002B01D003236EE000237B61FB681B6823
:102860005B697B61FB681B689B697B617B6935E009
:10287000FA693968F86803F03BFF0346002B0FD074
:10288000FB681B68FA681268126822F480621A609A
:10289000FB681B6C042B01D101234CE003234AE0AD
:1028A000FB681A68BB68591CB9601B781361FB8808
:1028B000013BFB80FB681B685B6903F00403002B92
:1028C0000CD0FB88002B09D0FB681A68BB68591C28
:1028D000B9601B781361FB88013BFB80FB88002BF0
:1028E000C6D1FB6900933B6800224FF48231F8683F
:1028F00003F042FE0346002B01D003231BE0FB68DC
:102900001B686FF480625A61FB681B68FA68126882
:10291000126822F480621A60FB68202283F83D204E
:10292000FB68002283F83E20FB68002283F83C20ED
:10293000002300E0022318462037BD4680BD00BFBB
:10294000020010000000FFFF0200010080B58AB005
:1029500002AFF860B9603B601346FB800023FB6167
:1029600011F088FEF861FB6893F83D30DBB2202B54
:1029700040F0CF80BB68002B02D0FB88002B01D138
:102980000123C7E0FB690093192301226349F8681A
:1029900003F0F2FD0346002B01D00223BAE0FB68EE
:1029A00093F83C30012B01D10223B3E0FB680122F4
:1029B00083F83C20FB681B68FA681268126822F4EE
:1029C00000621A60FB68222283F83D20FB68202207
:1029D00083F83E20FB6800221A64FB68504ADA62E2
:1029E000FB681B68FA681268126842F480621A6019
:1029F000FB6900933B6800224A49F86803F0BCFD7C
:102A00000346002B01D0032384E00023BB61FB6855
:102A10001B685B69BB61FB681B689B69BB61BB6929
:102A200037E0FA693968F86803F018FF0346002BAD
:102A30000FD0FB681B68FA681268126822F4806283
:102A40001A60FB681B6C202B01D1032362E0012379
:102A500060E0BB685A1CBA60FA6812681269D2B2A8
:102A60001A70FB88013BFB80FB681B685B6903F005
:102A70000403002B0DD0FB88002B0AD0BB685A1C26
:102A8000BA60FA6812681269D2B21A70FB88013B08
:102A9000FB80FB88002BC4D1FA693968F86803F021
:102AA000A3FE0346002B0FD0FB681B68FA68126870
:102AB000126822F480621A60FB681B6C042B01D13F
:102AC000012327E0032325E000237B61FB681B68CB
:102AD0005B697B61FB681B68FA681268126842F0E8
:102AE00001021A607B69FB681B68FA681268126849
:102AF00022F480621A60FB68202283F83D20FB6884
:102B0000002283F83E20FB68002283F83C2000234B
:102B100000E0022318462037BD4680BD02001000A9
:102B20000000FFFF0200010080B487B000AFF86032
:102B30007A601A460B467B8113463B8100237B61FA
:102B4000FB6893F83D30DBB2202B68D1374B1B6814
:102B5000DB08374AA2FB03231A0A13469B001344DF
:102B60009A0013447B617B695A1E7A61002B0CD159
:102B7000FB6800221A63FB68202283F83D20FB6873
:102B8000002283F83C2003234AE0FB681B689B6912
:102B900003F00203002BE6D1FB6893F83C30012BD5
:102BA00001D102233CE0FB68012283F83C20FB6852
:102BB0001B68FA681268126822F400621A60FB68E7
:102BC000212283F83D20FB68102283F83E20FB6819
:102BD00000221A64FB687A685A62FB683A891A858F
:102BE000FB683A895A85FB68124ADA627A89FB687F
:102BF0005A64FB681B68FA681268126842F48072B3
:102C00001A60FB68002283F83C20FB681B68FA68A6
:102C10001268526842F4E0625A60002300E0022326
:102C200018461C37BD4680BC704700BFCC01002051
:102C300089B5F8140000FFFF80B487B000AFF860DA
:102C40007A601A460B467B8113463B8100237B61E9
:102C5000FB6893F83D30DBB2202B70D13B4B1B68F7
:102C6000DB083B4AA2FB03231A0A13469B001344CA
:102C70009A0013447B617B695A1E7A61002B0CD148
:102C8000FB6800221A63FB68202283F83D20FB6862
:102C9000002283F83C20032352E0FB681B689B69F9
:102CA00003F00203002BE6D1FB6893F83C30012BC4
:102CB00001D1022344E0FB68012283F83C20FB6839
:102CC0001B68FA681268126822F400621A60FB68D6
:102CD000222283F83D20FB68102283F83E20FB6807
:102CE00000221A64FB687A685A62FB683A891A857E
:102CF000FB683A895A85FB68164ADA627A89FB686A
:102D00005A64FB681B68FA681268126842F48062B1
:102D10001A60FB681B68FA681268126842F48072D5
:102D20001A60FB68002283F83C20FB681B68FA6885
:102D30001268526842F4E0625A60002300E0022305
:102D400018461C37BD4680BC704700BFCC01002030
:102D500089B5F8140000FFFF80B487B000AFF860B9
:102D60007A601A460B467B8113463B8100237B61C8
:102D700000233B61FB6893F83D30DBB2202B40F031
:102D80008A803B6A042B02D03B6A012B25D1454B3C
:102D90001B68DB08444AA2FB03231A0A13469B0064
:102DA00013449A0013443B613B695A1E3A61002B5D
:102DB0000CD1FB6800221A63FB68202283F83D20B7
:102DC000FB68002283F83C20032365E0FB681B6856
:102DD0009B6903F00203002BE6D1FB6893F83C30BB
:102DE000012B01D1022357E0FB68012283F83C202C
:102DF000FB681B68FA681268126822F400621A60A5
:102E0000FB68212283F83D20FB68102283F83E20D6
:102E1000FB6800221A64FB687A685A62FB683A8988
:102E20001A85FB683A895A85FB683A6ADA627A89B8
:102E3000FB685A64FB681B6B7B617B69122B02D0B9
:102E40007B69002B19D13B6A042B02D03B6A012B12
:102E500008D1FB681B68FA681268126842F4807235
:102E60001A600AE07B69122B07D1FB681B68FA68BD
:102E70001268126842F480721A60FB68002283F8BC
:102E80003C20FB681B68FA681268526842F4E062F2
:102E90005A60002300E0022318461C37BD4680BC60
:102EA000704700BFCC01002089B5F81480B487B00A
:102EB00000AFF8607A601A460B467B8113463B816F
:102EC00000237B6100233B61FB6893F83D30DBB25C
:102ED000202B40F09E803B6A042B02D03B6A012BE2
:102EE00025D14F4B1B68DB084E4AA2FB03231A0A6D
:102EF00013469B0013449A0013443B613B695A1EDE
:102F00003A61002B0CD1FB6800221A63FB68202277
:102F100083F83D20FB68002283F83C20032379E0FE
:102F2000FB681B689B6903F00203002BE6D1FB687A
:102F300093F83C30012B01D102236BE0FB680122A6
:102F400083F83C20FB681B68FA681268126822F458
:102F500000621A60FB68222283F83D20FB68102281
:102F600083F83E20FB6800221A64FB687A685A6284
:102F7000FB683A891A85FB683A895A85FB683A6A80
:102F8000DA627A89FB685A64FB681B6B7B617B6938
:102F9000112B02D07B69002B2DD13B6A042B06D06C
:102FA0003B6A012B03D03B6A13F5803F10D1FB68CD
:102FB0001B68FA681268126842F480621A60FB6843
:102FC0001B68FA681268126842F480721A6012E094
:102FD0007B69112B0FD1FB681B68FA6812681268B5
:102FE00042F480621A60FB681B68FA681268126813
:102FF00042F480721A60FB68002283F83C20FB6870
:103000001B68FA681268526842F4E0625A60002352
:1030100000E0022318461C37BD4680BC704700BF45
:10302000CC01002089B5F81480B487B000AFF860F7
:10303000B9601346FB8000237B61FB6893F83D3049
:10304000DBB2202B6DD1BB68002B02D0FB88002B9C
:1030500001D1012366E0364B1B68DB08354AA2FB31
:1030600003231A0A13469B0013449A0013447B61FE
:103070007B695A1E7A61002B0CD1FB6800221A630F
:10308000FB68202283F83D20FB68002283F83C2067
:10309000032347E0FB681B689B6903F00203002BD6
:1030A000E6D1FB6893F83C30012B01D1022339E0D3
:1030B000FB68012283F83C20FB681B68FA681268F1
:1030C000126822F400621A60FB68212283F83D2016
:1030D000FB68202283F83E20FB6800221A64FB680C
:1030E000BA685A62FB68FA881A85FB68FA885A85BA
:1030F000FB68114ADA62FB681B68FA68126812689A
:1031000042F480621A60FB68002283F83C20FB686E
:103110001B68FA681268526842F4E0625A60002341
:1031200000E0022318461C37BD4680BC704700BF34
:10313000CC01002089B5F8140000FFFF80B487B0EF
:1031400000AFF860B9601346FB8000237B61FB6829
:1031500093F83D30DBB2202B6DD1BB68002B02D041
:10316000FB88002B01D1012366E0364B1B68DB088E
:10317000354AA2FB03231A0A13469B0013449A0004
:1031800013447B617B695A1E7A61002B0CD1FB686A
:1031900000221A63FB68202283F83D20FB6800228E
:1031A00083F83C20032347E0FB681B689B6903F01E
:1031B0000203002BE6D1FB6893F83C30012B01D1D0
:1031C000022339E0FB68012283F83C20FB681B687E
:1031D000FA681268126822F400621A60FB68222200
:1031E00083F83D20FB68202283F83E20FB68002204
:1031F0001A64FB68BA685A62FB68FA881A85FB6829
:10320000FA885A85FB68114ADA62FB681B68FA681B
:103210001268126842F480621A60FB68002283F828
:103220003C20FB681B68FA681268526842F4E0624E
:103230005A60002300E0022318461C37BD4680BCBC
:10324000704700BFCC01002089B5F8140000FFFFD3
:1032500080B487B000AFF860B9603B601346FB8074
:10326000FB6893F83D30DBB2282B4AD1BB68002BBA
:1032700002D0FB88002B01D1012343E0FB6893F8C7
:103280003C30012B01D102233CE0FB68012283F892
:103290003C20FB681B68FA681268126822F400621E
:1032A0001A60FB68292283F83D20FB68202283F8FE
:1032B0003E20FB6800221A64FB68BA685A62FB6809
:1032C000FA881A85FB68FA885A85FB683A68DA62D8
:1032D00000237B61FB681B685B697B61FB681B6883
:1032E0009B697B617B69FB68002283F83C20FB685B
:1032F0001B68FA681268526842F4E0625A60002360
:1033000000E0022318461C37BD4680BC704700BF52
:1033100080B487B000AFF860B9603B601346FB80B3
:10332000FB6893F83D30DBB2282B4AD1BB68002BF9
:1033300002D0FB88002B01D1012343E0FB6893F806
:103340003C30012B01D102233CE0FB68012283F8D1
:103350003C20FB681B68FA681268126822F400625D
:103360001A60FB682A2283F83D20FB68202283F83C
:103370003E20FB6800221A64FB68BA685A62FB6848
:10338000FA881A85FB68FA885A85FB683A68DA6217
:1033900000237B61FB681B685B697B61FB681B68C2
:1033A0009B697B617B69FB68002283F83C20FB689A
:1033B0001B68FA681268526842F4E0625A6000239F
:1033C00000E0022318461C37BD4680BC704700BF92
:1033D00080B483B000AF78607B6893F83D30DBB297
:1033E000202B15D17B68282283F83D207B681B6841
:1033F0007A681268126842F480621A607B681B68FF
:103400007A681268526842F440725A60002300E001
:10341000022318460C37BD4680BC704780B485B087
:1034200000AF78607B6893F83D30DBB2282B29D160
:103430007B6893F83D30DBB203F00303FB607B68ED
:1034400093F83E30DBB21A46FB681A437B681A6376
:103450007B68202283F83D207B68002283F83E2091
:103460007B681B687A681268126822F480621A60AE
:103470007B681B687A681268526822F440725A604E
:10348000002300E0022318461437BD4680BC704775
:1034900080B588B000AFF8607A601A460B467B8131
:1034A00013463B810023FB610023BB6111F0E2F86E
:1034B000F861FB6893F83D30DBB2202B40F0E180EF
:1034C000724B1B68DB08724AA2FB03231A0A1346DD
:1034D0009B0013449A001344BB61BB695A1EBA6136
:1034E000002B0CD1FB6800221A63FB68202283F8B2
:1034F0003D20FB68002283F83C200323C2E0FB68E8
:103500001B689B6903F00203002BE6D1FB6893F86C
:103510003C30012B01D10223B4E0FB68012283F887
:103520003C20FB681B68FA681268126822F400628B
:103530001A60FB68212283F83D20FB68102283F883
:103540003E20FB6800221A64FB687A685A62FB68B6
:103550003A891A85FB683A895A85FB684D4ADA62CE
:10356000FB681B8D002B56D0FB685B6B4A4ADA6305
:10357000FB685B6B494ADA64FB685B6B00221A6488
:10358000FB685B6B00225A64FB685B6B00229A64E9
:10359000FB685B6B00221A65FB68586B7968FB68F7
:1035A0001B6810331A463B8907F0C2FE7989FB6914
:1035B0002322F86802F040FC0346002B0FD0FB6882
:1035C0001B6C042B05D1FB68002283F83C200123EF
:1035D00058E0FB68002283F83C20032352E00023DC
:1035E0007B61FB681B685B697B61FB681B689B698F
:1035F0007B617B69FB681B68FA681268526842F459
:1036000080725A60FB681B68FA681268526842F45C
:1036100000625A602FE07989FB692322F86802F082
:103620000BFC0346002B0FD0FB681B6C042B05D151
:10363000FB68002283F83C20012323E0FB68002282
:1036400083F83C2003231DE000233B61FB681B68DB
:103650005B693B61FB681B689B693B613B69FB687D
:103660001B68FA681268126842F400721A60FB68FC
:10367000202283F83D20FB68002283F83C200023B1
:1036800000E0022318462037BD4680BDCC01002053
:1036900089B5F8140000FFFFC5630008B164000895
:1036A00080B588B000AFF8607A601A460B467B811F
:1036B00013463B810023FB610023BB6110F0DAFF5E
:1036C000F861FB6893F83D30DBB2202B40F0F980C5
:1036D0007E4B1B68DB087E4AA2FB03231A0A1346B3
:1036E0009B0013449A001344BB61BB695A1EBA6124
:1036F000002B0CD1FB6800221A63FB68202283F8A0
:103700003D20FB68002283F83C200323DAE0FB68BD
:103710001B689B6903F00203002BE6D1FB6893F85A
:103720003C30012B01D10223CCE0FB68012283F85D
:103730003C20FB681B68FA681268126822F4006279
:103740001A60FB68222283F83D20FB68102283F870
:103750003E20FB6800221A64FB687A685A62FB68A4
:103760003A891A85FB683A895A85FB68594ADA62B0
:10377000FB681B8D002B6ED0FB689B6B564ADA638F
:10378000FB689B6B554ADA64FB689B6B00221A64EA
:10379000FB689B6B00225A64FB689B6B00229A6457
:1037A000FB689B6B00221A65FB68986BFB681B68C3
:1037B000103319467A683B8907F0BAFD7989FB69AD
:1037C0002322F86802F0BAFB0346002B0FD0FB68F7
:1037D0001B6C042B05D1FB68002283F83C200123DD
:1037E00070E0FB68002283F83C2003236AE03B89F9
:1037F000012B08D1FB681B68FA681268126822F472
:1038000080621A6007E0FB681B68FA6812685268F9
:1038100042F480525A6000237B61FB681B685B693D
:103820007B61FB681B689B697B617B69FB6800228D
:1038300083F83C20FB681B68FA681268526842F4FF
:1038400080725A60FB681B68FA681268526842F41A
:1038500000625A6033E07989FB692322F86802F03C
:103860006DFB0346002B0FD0FB681B6C042B05D1AE
:10387000FB68002283F83C20012323E0FB68002240
:1038800083F83C2003231DE000233B61FB681B6899
:103890005B693B61FB681B689B693B613B69FB683B
:1038A0001B68FA681268126842F400721A60FB68BA
:1038B000202283F83D20FB68002283F83C2000236F
:1038C00000E0022318462037BD4680BDCC01002011
:1038D00089B5F8140000FFFFC5630008B164000853
:1038E00080B582B000AF78600B467B807B6893F830
:1038F0003E30DBB2102B3FD17B6893F83C30012B7C
:1039000001D1022339E07B68012283F83C207B68E7
:1039100000221A637B68602283F83D207B681B6865
:103920007A681268126822F480621A607B681B68E9
:103930007A681268126842F400721A607B6800228A
:103940005A857B681B687A681268526822F4E062C4
:103950005A607B68002283F83C207B6893F83D30F6
:10396000DBB2602B06D17B68202283F83D2078688B
:1039700001F034FB002300E0012318460837BD4660
:1039800080BD00BF80B588B000AFF860B960134655
:10399000FB800023FB61FB6893F83D30DBB2202BFA
:1039A00040F01181BB68002B02D0FB88002B01D1B5
:1039B000012309E1864B1B68DB08864AA2FB03232F
:1039C0001A0A13469B0013449A001344FB61FB69D7
:1039D0005A1EFA61002B0CD1FB6800221A63FB68A7
:1039E000202283F83D20FB68002283F83C2003233B
:1039F000EAE0FB681B689B6903F00203002BE6D139
:103A0000FB6893F83C30012B01D10223DCE0FB681A
:103A1000012283F83C20FB681B68FA681268126870
:103A200022F400621A60FB68212283F83D20FB68C3
:103A3000202283F83E20FB6800221A64FB68BA68E3
:103A40005A62FB68FA881A85FB68FA885A85FB680F
:103A5000614ADA62FB685B6B604ADA63FB685B6B46
:103A60005F4ADA64FB685B6B00221A64FB685B6B7D
:103A700000225A64FB685B6B00229A64FB685B6BF4
:103A800000221A65FB68586BB968FB681B68103325
:103A90001A46FB8807F04CFCFB681B68FA68126842
:103AA000526842F480725A60FB681B68FA681268B8
:103AB000526842F400625A60FB681B68FA68126838
:103AC000126842F480621A60414B1B68DB08414A6D
:103AD000A2FB03231B0A42F2107202FB03F3FB61F9
:103AE000FB695A1EFA61002B0CD1FB6800221A6395
:103AF000FB68202283F83D20FB68002283F83C20ED
:103B0000032361E0FB681B685B6903F00203002B81
:103B1000E6D0FB681B69B3F5804F0BD10023BB6176
:103B2000FB681B685B69BB61FB681B689B69BB61C9
:103B3000BB693AE000237B61FB681B685B697B61C2
:103B4000FB681B689B697B617B69214B1B68DB08F9
:103B5000204AA2FB03231B0A42F2107202FB03F36A
:103B6000FB61FB695A1EFA61002B0CD1FB68002235
:103B70001A63FB68202283F83D20FB68002283F84B
:103B80003C20032320E0FB681B685B6903F0020311
:103B9000002BE6D000233B61FB681B685B693B613F
:103BA000FB681B689B693B613B69FB68002283F8EB
:103BB0003C20FB681B68FA681268526842F4807205
:103BC0005A60002300E0022318462037BD4680BD1E
:103BD000CC01002089B5F8140000FFFFC563000880
:103BE000B164000880B586B000AFF860B9601346D4
:103BF000FB8000237B61FB6893F83D30DBB2202B18
:103C000040F0D080BB68002B02D0FB88002B01D194
:103C10000123C8E0664B1B68DB08664AA2FB03234E
:103C20001A0A13469B0013449A0013447B617B6974
:103C30005A1E7A61002B0CD1FB6800221A63FB68C4
:103C4000202283F83D20FB68002283F83C200323D8
:103C5000A9E0FB681B689B6903F00203002BE6D117
:103C6000FB6893F83C30012B01D102239BE0FB68F9
:103C7000012283F83C20FB681B68FA68126812680E
:103C800022F400621A60FB68222283F83D20FB6860
:103C9000202283F83E20FB6800221A64FB68BA6881
:103CA0005A62FB68FA881A85FB68FA885A85FB68AD
:103CB000414ADA62FB689B6B404ADA63FB689B6BA4
:103CC0003F4ADA64FB689B6B00221A64FB689B6BBB
:103CD00000225A64FB689B6B00229A64FB689B6B12
:103CE00000221A65FB68986BFB681B681033194645
:103CF000BA68FB8807F01CFBFB681B68FA6812684F
:103D0000526842F480725A60FB681B68FA68126855
:103D1000526842F400625A60FB681B68FA681268D5
:103D2000126842F480621A60214B1B68DB08214A4A
:103D3000A2FB03231B0A42F2107202FB03F37B6116
:103D40007B695A1E7A61002B0CD1FB6800221A6332
:103D5000FB68202283F83D20FB68002283F83C208A
:103D6000032320E0FB681B685B6903F00203002B60
:103D7000E6D000233B61FB681B685B693B61FB6825
:103D80001B689B693B613B69FB68002283F83C2010
:103D9000FB681B68FA681268526842F480725A60C5
:103DA000002300E0022318461837BD4680BD00BF3F
:103DB000CC01002089B5F8140000FFFFC56300089E
:103DC000B164000880B588B002AFF86008461146BB
:103DD0001A4603467B810B463B811346FB8000233A
:103DE0007B6110F047FC7861FB6893F83D30DBB2F3
:103DF000202B40F0B3807B690093192301225A499C
:103E0000F86802F0B9FB0346002B01D00223A6E0BC
:103E1000FB6893F83C30012B01D102239FE0FB6843
:103E2000012283F83C20FB681B68FA68126812685C
:103E300022F400621A60FB68212283F83D20FB68AF
:103E4000402283F83E20FB6800221A64FB68474A40
:103E5000DA62F8883A8979897B690193BB6A0093B1
:103E60000346F86802F03AF90346002B45D0FB6898
:103E70001B6C042B05D1FB68002283F83C20012336
:103E80006DE0FB68002283F83C20032367E07A6939
:103E9000B96AF86802F02CFC0346002B0FD0FB68CF
:103EA0001B6C042B09D1FB681B68FA681268126846
:103EB00042F400721A60012351E003234FE0FB68D3
:103EC0001A683B6A591C39621B781361BB8C013B31
:103ED000BB84FB681B685B6903F00403002B0CD0F8
:103EE000BB8C002B09D0FB681A683B6A591C3962ED
:103EF0001B781361BB8C013BBB84BB8C002BC6D1F0
:103F00007A69B96AF86802F031FC0346002B0FD0D9
:103F1000FB681B6C042B09D1FB681B68FA681268EC
:103F2000126842F400721A60012318E0032316E0BD
:103F3000FB681B68FA681268126842F400721A6023
:103F4000FB68202283F83D20FB68002283F83E2096
:103F5000FB68002283F83C20002300E0022318467F
:103F60001837BD4680BD00BF020010000000FFFFF3
:103F700080B58CB002AFF860084611461A46034679
:103F80007B810B463B811346FB8000237B6210F054
:103F900071FB7862FB6893F83D30DBB2202B40F078
:103FA00091817B6A0093192301229449F86802F0F9
:103FB000E3FA0346002B01D0022384E1FB6893F867
:103FC0003C30012B01D102237DE1FB68012283F803
:103FD0003C20FB681B68FA681268126822F40062D1
:103FE0001A60FB68222283F83D20FB68402283F898
:103FF0003E20FB6800221A64FB68814ADA62F88876
:104000003A8979897B6A0193BB6B00930346F86810
:1040100002F0F6F80346002B0FD0FB681B6C042B54
:1040200005D1FB68002283F83C2001234BE1FB68AB
:10403000002283F83C20032345E1BB8E002B13D1E3
:1040400000233B62FB681B685B693B62FB681B6883
:104050009B693B623B6AFB681B68FA6812681268DE
:1040600042F400721A601BE1BB8E012B1BD1FB686E
:104070001B68FA681268126822F480621A600023D2
:10408000FB61FB681B685B69FB61FB681B689B69E4
:10409000FB61FB69FB681B68FA681268126842F4EE
:1040A00000721A60FCE0BB8E022B1BD1FB681B6800
:1040B000FA681268126822F480621A60FB681B6852
:1040C000FA681268126842F400621A600023BB6149
:1040D000FB681B685B69BB61FB681B689B69BB6114
:1040E000BB69DDE000237B61FB681B685B697B616A
:1040F000FB681B689B697B617B69D1E0BB8E032BEE
:1041000000F2A180BB8E012B1BD17A6AB96BF868D3
:1041100002F0A4FB0346002B07D0FB681B6C202B8E
:1041200001D10323CFE00123CDE03B6B5A1C3A635E
:10413000FA6812681269D2B21A70BB8E013BBB8654
:10414000AEE0BB8E022B2BD17B6A0093BB6B0022AF
:104150002C49F86802F010FA0346002B01D0032323
:10416000B1E0FB681B68FA681268126842F40072DA
:104170001A603B6B5A1C3A63FA6812681269D2B231
:104180001A70BB8E013BBB863B6B5A1C3A63FA68C4
:1041900012681269D2B21A70BB8E013BBB867FE0F7
:1041A0007B6A0093BB6B00221649F86802F0E4F9C1
:1041B0000346002B01D0032385E0FB681B68FA68E7
:1041C0001268126822F480621A603B6B5A1C3A63D0
:1041D000FA6812681269D2B21A70BB8E013BBB86B4
:1041E0007B6A0093BB6B00220649F86802F0C4F9B1
:1041F0000346002B08D0032365E000BF0200100037
:104200000000FFFF04000100FB681B68FA681268E9
:10421000126842F400721A603B6B5A1C3A63FA68E7
:1042200012681269D2B21A70BB8E013BBB863B6B1F
:104230005A1C3A63FA6812681269D2B21A70BB8EBD
:10424000013BBB862CE07A6AB96BF86802F006FB8A
:104250000346002B07D0FB681B6C202B01D10323E6
:1042600031E001232FE03B6B5A1C3A63FA68126875
:104270001269D2B21A70BB8E013BBB86FB681B6809
:104280005B6903F00403002B0AD03B6B5A1C3A63B2
:10429000FA6812681269D2B21A70BB8E013BBB86F3
:1042A000BB8E002B7FF42AAFFB68202283F83D20D1
:1042B000FB68002283F83E20FB68002283F83C2044
:1042C000002300E0022318462837BD4680BD00BF0A
:1042D00080B487B000AFF860084611461A4603461E
:1042E0007B810B463B811346FB8000237B61FB688F
:1042F00093F83D30DBB2202B71D13C4B1B68DB08BF
:104300003B4AA2FB03231A0A13469B0013449A005C
:1043100013447B617B695A1E7A61002B0CD1FB68C8
:1043200000221A63FB68202283F83D20FB680022EC
:1043300083F83C20032353E0FB681B689B6903F070
:104340000203002BE6D1FB6893F83C30012B01D12E
:10435000022345E0FB68012283F83C20FB681B68D0
:10436000FA681268126822F400621A60FB6821225F
:1043700083F83D20FB68402283F83E20FB68002242
:104380001A64FB683A6A5A62FB68BA8C1A85FB6841
:10439000BA8C5A85FB68174ADA627A89FB685A64D4
:1043A0003A89FB689A64FA88FB68DA64FB68002241
:1043B0001A65FB681B68FA681268126842F480721A
:1043C0001A60FB68002283F83C20FB681B68FA68CF
:1043D0001268526842F4E0625A60002300E002234F
:1043E00018461C37BD4680BC704700BFCC0100207A
:1043F00089B5F8140000FFFF80B487B000AFF86003
:10440000084611461A4603467B810B463B811346FC
:10441000FB8000237B61FB6893F83D30DBB2202BEF
:104420007DD1424B1B68DB08414AA2FB03231A0AD9
:1044300013469B0013449A0013447B617B695A1E08
:104440007A61002B0CD1FB6800221A63FB682022E2
:1044500083F83D20FB68002283F83C2003235FE0C3
:10446000FB681B689B6903F00203002BE6D1FB6825
:1044700093F83C30012B01D1022351E0FB6801226B
:1044800083F83C20FB681B68FA681268126822F403
:1044900000621A60FB68222283F83D20FB684022FC
:1044A00083F83E20FB6800221A64FB683A6A5A626D
:1044B000FB68BA8C1A85FB68BA8C5A85FB681D4A62
:1044C000DA627A89FB685A643A89FB689A64FA88E6
:1044D000FB68DA64FB6800221A65FB681B68FA68EF
:1044E0001268126842F480621A60FB681B68FA68FE
:1044F0001268126842F480721A60FB68002283F826
:104500003C20FB681B8D002B07D0FB681B68FA68FA
:104510001268526842F4E0625A60002300E002230D
:1045200018461C37BD4680BC704700BFCC01002038
:1045300089B5F8140000FFFF80B588B002AFF860BD
:10454000084611461A4603467B810B463B811346BB
:10455000FB8000237B6110F08DF8786100233B61C4
:10456000FB6893F83D30DBB2202B40F0D5806D4BDB
:104570001B68DB086C4AA2FB03231A0A13469B0044
:1045800013449A0013443B613B695A1E3A61002B65
:104590000CD1FB6800221A63FB68202283F83D20BF
:1045A000FB68002283F83C200323B6E0FB681B680D
:1045B0009B6903F00203002BE6D1FB6893F83C30C3
:1045C000012B01D10223A8E0FB68012283F83C20E3
:1045D000FB681B68FA681268126822F400621A60AD
:1045E000FB68212283F83D20FB68402283F83E20AF
:1045F000FB6800221A64FB683A6A5A62FB68BA8C4C
:104600001A85FB68BA8C5A85FB68484ADA62FB68EF
:104610001B8D002B50D0FB685B6B454ADA63FB684F
:104620005B6B444ADA64FB685B6B00221A64FB68CC
:104630005B6B00225A64FB685B6B00229A64FB6828
:104640005B6B00221A65FB68586B396AFB681B6854
:1046500010331A46BB8C06F06BFEF8883A897989CC
:104660007B690193232300930346F86801F036FD2C
:104670000346002B0FD0FB681B6C042B05D1FB6895
:10468000002283F83C20012347E0FB68002283F8E6
:104690003C20032341E0FB681B68FA6812685268FB
:1046A00042F480725A60FB681B68FA6812685268AC
:1046B00042F400625A6029E0F8883A8979897B6976
:1046C0000193232300930346F86801F099FD034604
:1046D000002B0FD0FB681B6C042B05D1FB6800225C
:1046E00083F83C20012318E0FB68002283F83C207B
:1046F000032312E0FB681B68FA681268126842F430
:1047000000721A60FB68202283F83D20FB680022BB
:1047100083F83C20002300E0022318461837BD46EA
:1047200080BD00BFCC01002089B5F8140000FFFF58
:10473000C5630008B164000880B58AB002AFF860B4
:10474000084611461A4603467B810B463B811346B9
:10475000FB800023FB610FF08DFFF8610023BB613C
:10476000FB6893F83D30DBB2202B40F00381844B93
:104770001B68DB08834AA2FB03231A0A13469B002B
:1047800013449A001344BB61BB695A1EBA61002BE3
:104790000CD1FB6800221A63FB68202283F83D20BD
:1047A000FB68002283F83C200323E4E0FB681B68DD
:1047B0009B6903F00203002BE6D1FB6893F83C30C1
:1047C000012B01D10223D6E0FB68012283F83C20B3
:1047D000FB681B68FA681268126822F400621A60AB
:1047E000FB68222283F83D20FB68402283F83E20AC
:1047F000FB6800221A64FB68BA6A5A62FB68BA8DC9
:104800001A85FB68BA8D5A85FB685F4ADA62FB68D5
:104810001B8D002B73D0FB689B6B5C4ADA63FB68D3
:104820009B6B5B4ADA64FB689B6B00221A64FB6833
:104830009B6B00225A64FB689B6B00229A64FB68A6
:104840009B6B00221A65FB68986BFB681B68103332
:104850001946BA6ABB8D06F06BFDF8883A897989EA
:10486000FB690193232300930346F86801F0C8FC19
:104870000346002B0FD0FB681B6C042B05D1FB6893
:10488000002283F83C20012375E0FB68002283F8B6
:104890003C2003236FE0BB8D012B08D1FB681B6814
:1048A000FA681268126822F480621A6007E0FB68F6
:1048B0001B68FA681268526842F480525A600023FA
:1048C0007B61FB681B685B697B61FB681B689B699C
:1048D0007B617B69FB68002283F83C20FB681B68D6
:1048E000FA681268526842F480725A60FB681B686A
:1048F000FA681268526842F400625A6038E0F88838
:104900003A897989FB690193232300930346F86868
:1049100001F076FC0346002B0FD0FB681B6C042BC8
:1049200005D1FB68002283F83C20012323E0FB68CB
:10493000002283F83C2003231DE000233B61FB6839
:104940001B685B693B61FB681B689B693B613B695A
:10495000FB681B68FA681268126842F400721A60F9
:10496000FB68202283F83D20FB68002283F83C206E
:10497000002300E0022318462037BD4680BD00BF5B
:10498000CC01002089B5F8140000FFFFC5630008C2
:10499000B164000880B58CB002AFF8607A603B600B
:1049A0000B467B8100237B6200233B620023FB617B
:1049B0000023BB6101237B610FF05CFE7862FB6822
:1049C00093F83D30DBB2202B40F0F9807B6A0093F6
:1049D000192301227C49F86801F0CEFD0346002B23
:1049E00001D00223ECE0FB6893F83C30012B01D1AD
:1049F0000223E5E0FB68012283F83C20FB681B688A
:104A0000FA681268126822F400621A60FB682422B5
:104A100083F83D20FB6800221A64FB686B4ADA6267
:104A2000FB681B68FA681268126842F480721A60A8
:104A30007B6A00933B6800224FF00111F86801F097
:104A40009BFD0346002B01D00323B9E0FB681B68E4
:104A50007A89D2B202F0FE021A610FF00BFE786280
:104A6000FB681B685B6903F00203002B14BF012382
:104A70000023DBB23B62FB681B685B6903F4806365
:104A8000002B14BF01230023DBB2FB61FB6893F80A
:104A90003D30DBB2BB6129E03B68002B07D00FF053
:104AA000E9FD02467B6AD21A3B689A4203D9FB6849
:104AB000A02283F83D20FB681B685B6903F00203BA
:104AC000002B14BF01230023DBB23B62FB681B6891
:104AD0005B6903F48063002B14BF01230023DBB266
:104AE000FB61FB6893F83D30DBB2BB613B6A002B96
:104AF00005D1FB69002B02D1BB69A02BCCD1FB688F
:104B0000202283F83D20FB681B685B6903F00203E9
:104B1000002B29D0FB681B68FA681268126842F4FF
:104B200000721A6000233B61FB681B685B693B6194
:104B3000FB681B689B693B613B697B6A0093192397
:104B400001222149F86801F017FD0346002B01D02E
:104B5000032335E0FB68202283F83D20FB68002218
:104B600083F83C2000232BE0FB681B68FA6812687E
:104B7000126842F400721A60FB681B686FF480626E
:104B80005A617B6A0093192301220F49F86801F0EA
:104B9000F3FC0346002B01D0032311E07B695A1C70
:104BA0007A617A689342FFF43BAFFB68202283F876
:104BB0003D20FB68002283F83C20012300E0022313
:104BC00018462837BD4680BD020010000000FFFFD8
:104BD00080B586B000AF78607B681B689B697B619D
:104BE0007B681B685B693B617B681B685B68FB607B
:104BF0007B6893F83E30DBB2BB60BB68102B02D001
:104C0000BB68402B72D13B6903F00113002B08D025
:104C1000FB6803F40073002B03D0786800F008FDF4
:104C20001AE03A69654B1340002B08D0FB6803F487
:104C30000073002B03D0786800F062FD0CE03A6945
:104C40005F4B1340002B07D0FB6803F40073002B6D
:104C500002D0786800F064FD7A695A4B1340002B4B
:104C600022D03A69584B1340002B0DD0FB6803F457
:104C70008063002B08D03A69544B1340002B03D1BA
:104C8000786800F0DDF930E03A69504B1340002BB2
:104C900000F08F80FB6803F40073002B00F0898024
:104CA000786800F0D3FA84E03A69494B1340002B4E
:104CB0000DD0FB6803F48063002B08D03A69434BA6
:104CC0001340002B03D1786800F042FB0DE03A69F5
:104CD0003E4B1340002B6CD0FB6803F40073002B99
:104CE00067D0786800F0D4FB63E062E03A69344B47
:104CF0001340002B08D0FB6803F40073002B03D093
:104D0000786800F0E9FE55E03A69324B1340002B19
:104D100008D0FB6803F40073002B03D0786800F020
:104D200005FF47E07A69274B1340002B20D03A69F2
:104D3000254B1340002B0DD0FB6803F48063002B40
:104D400008D03A69214B1340002B03D1786800F05A
:104D5000EDFD2FE03A691D4B1340002B2AD0FB6874
:104D600003F40073002B25D0786800F029FE21E0C1
:104D70003A69174B1340002B0DD0FB6803F4806396
:104D8000002B08D03A69114B1340002B03D17868EF
:104D900000F036FE0EE03A690C4B1340002B09D0B0
:104DA000FB6803F40073002B04D0786800F074FEF5
:104DB00000E000BF00BF1837BD4680BD08000100FD
:104DC0000200010004001000800001000400010046
:104DD000400001001000010080B588B000AF78608D
:104DE0000023FB610023BB6100237B6100233B6147
:104DF0007B681B685B69FB607B681B685B68BB60EA
:104E0000FA68464B1340002B0FD0BB6803F4807345
:104E1000002B0AD07B681B6C43F001027B681A648C
:104E20007B681B686FF480725A61FB6803F48133FE
:104E3000002B0FD0BB6803F48073002B0AD07B6873
:104E40001B6C43F002027B681A647B681B686FF47A
:104E500000725A61FB6803F48233002B3ED0BB68BA
:104E600003F48073002B39D07B6893F83E30DBB2BB
:104E7000FB617B685B8D9BB2BB617B6893F83D30C7
:104E8000DBB27B617B681B6B3B61FB69202B12D122
:104E9000BB69002B0FD17B69212B08D07B69292BA3
:104EA00005D07B69282B06D13B69212B03D178687B
:104EB00000F09CFE12E07B681B6C43F004027B68F0
:104EC0001A647B681B687A681268126842F4007280
:104ED0001A607B681B686FF480625A61FB6803F498
:104EE0008433002B0FD0BB6803F48073002B0AD0EF
:104EF0007B681B6C43F008027B681A647B681B6844
:104F00006FF400625A617B681B6C002B02D07868DA
:104F100000F0ECFE00BF2037BD4680BD000101005F
:104F200080B483B000AF786000BF0C37BD4680BC52
:104F3000704700BF80B483B000AF786000BF0C370B
:104F4000BD4680BC704700BF80B483B000AF7860BE
:104F500000BF0C37BD4680BC704700BF80B483B033
:104F600000AF786000BF0C37BD4680BC704700BF03
:104F700080B483B000AF78600B46FB7013463B8073
:104F800000BF0C37BD4680BC704700BF80B483B003
:104F900000AF786000BF0C37BD4680BC704700BFD3
:104FA00080B483B000AF786000BF0C37BD4680BCD2
:104FB000704700BF80B483B000AF786000BF0C378B
:104FC000BD4680BC704700BF80B483B000AF78603E
:104FD00000BF0C37BD4680BC704700BF80B483B0B3
:104FE00000AF786000BF0C37BD4680BC704700BF83
:104FF00080B483B000AF78607B6893F83D30DBB25B
:1050000018460C37BD4680BC704700BF80B483B0E3
:1050100000AF78607B6893F83E30DBB218460C37FF
:10502000BD4680BC704700BF80B483B000AF7860DD
:105030007B681B6C18460C37BD4680BC704700BFB0
:1050400080B586B000AF78607B6893F83D30DBB206
:105050007B617B6893F83E30DBB23B617B68DB6A47
:10506000FB607B681B8D002B5DD17B69212B5AD1A6
:10507000FB68042B2AD0FB68082B27D0FB6813F5AC
:10508000803F23D07B681B687A681268526822F4DC
:10509000E0625A607B6893F83D30DBB203F00303B3
:1050A000BB607B6893F83E30DBB21A46BB681A439C
:1050B0007B681A637B68002283F83E207B6820228D
:1050C00083F83D20786807F025FCB9E07B681B6811
:1050D0007A681268526822F4E0625A607B681B6842
:1050E0007A681268126842F400721A607B680022C3
:1050F0001A637B68202283F83D207B6893F83E305A
:10510000DBB2402B07D17B68002283F83E20786811
:10511000FFF746FF94E07B68002283F83E20786822
:1051200007F0F8FB8CE07B69212B07D03B69402B13
:1051300040F086807B69222B40F082807B685B8D0B
:105140009BB2002B08D17B681B687A681268526892
:1051500022F480625A6073E07B6893F83E30DBB2E1
:10516000402B5DD17B681B6D002B1FD17B68DB6CF6
:10517000012B0BD17B681B687A68926CD2B21A61E2
:105180007B681B6D9A1C7B681A6559E07B681B68FD
:105190007A68926C92B202F47F421212D2B21A6111
:1051A0007B681B6D5A1C7B681A6549E07B681B6D28
:1051B000012B0BD17B681B687A68926CD2B21A61A2
:1051C0007B681B6D5A1C7B681A6539E07B681B6D18
:1051D000022B35D17B6893F83D30DBB2222B08D10E
:1051E0007B681B687A681268126842F480721A60E1
:1051F00026E07B6893F83D30DBB2212B20D17B6821
:105200001A687B685B6A581C796848621B7813616E
:105210007B685B8D9BB2013B9AB27B685A850FE03D
:105220007B681A687B685B6A581C796848621B78DF
:1052300013617B685B8D9BB2013B9AB27B685A8598
:10524000002318461837BD4680BD00BF80B584B026
:1052500000AF78607B68DB6AFB607B6893F83D3069
:10526000DBB2212B6FD17B685B8D9BB2002B10D002
:105270007B681A687B685B6A581C796848621B788F
:1052800013617B685B8D9BB2013B9AB27B685A8548
:1052900059E0FB68042B2AD0FB68082B27D0FB6859
:1052A00013F5803F23D07B681B687A6812685268C8
:1052B00022F4E0625A607B6893F83D30DBB203F081
:1052C0000303BB607B6893F83E30DBB21A46BB68D1
:1052D0001A437B681A637B68002283F83E207B6850
:1052E000202283F83D20786807F014FB2BE07B68D0
:1052F0001B687A681268526822F4E0625A607B6820
:105300001B687A681268126842F400721A607B683F
:1053100000221A637B68202283F83D207B6893F883
:105320003E30DBB2402B07D17B68002283F83E2061
:105330007868FFF735FE06E07B68002283F83E20A0
:10534000786807F0E7FA002318461037BD4680BD9D
:1053500080B584B000AF78607B6893F83D30DBB2F5
:10536000222B40F090800023FB607B685B8D9BB21A
:10537000FB60FB68032B11D97B685B6A591C7A6858
:1053800051627A6812681269D2B21A707B685B8DBA
:105390009BB2013B9AB27B685A8574E0FB68022B92
:1053A00002D0FB68032B18D17B681B687A681268EF
:1053B000126822F480621A607B681B687A6812683F
:1053C000126842F400621A607B681B687A6812688F
:1053D000526822F480625A6055E07B681B687A68E4
:1053E0001268126822F480621A607B68DB6A022B02
:1053F00007D17B681B687A681268126842F4006201
:105400001A607B681B687A681268526822F4E0624E
:105410005A607B685B6A591C7A6851627A681268C4
:105420001269D2B21A707B685B8D9BB2013B9AB253
:105430007B685A857B6893F83D30DBB203F0030349
:10544000FB607B6893F83E30DBB21A46FB681A4378
:105450007B681A637B68202283F83D207B6893F881
:105460003E30DBB2402B07D17B68002283F83E2020
:105470007868FFF79FFD06E07B68002283F83E20F6
:10548000786807F059FA002318461037BD4680BDEA
:1054900080B584B000AF78607B68DB6AFB607B68B6
:1054A0005B8D9BB2032B23D1FB68042B06D0FB68DA
:1054B000082B03D0FB6813F5803F07D17B681B687E
:1054C0007A681268126822F480621A607B685B6AEC
:1054D000591C7A6851627A6812681269D2B21A70DD
:1054E0007B685B8D9BB2013B9AB27B685A8599E0E1
:1054F0007B685B8D9BB2022B40F08380FB68042BA2
:105500002DD0FB68082B2AD0FB6813F5803F26D0EE
:105510007B681B687A681268126822F480621A60DD
:10552000FB68022B02D0FB68012B07D17B681B684C
:105530007A681268126842F480721A607B6893F885
:105540003D30DBB203F00303BB607B6893F83E3071
:10555000DBB21A46BB681A437B681A630AE07B68B1
:1055600012221A637B681B687A681268126842F418
:1055700000721A607B685B6A591C7A6851627A68AB
:1055800012681269D2B21A707B685B8D9BB2013BC4
:105590009AB27B685A857B685B6A591C7A6851624B
:1055A0007A6812681269D2B21A707B685B8D9BB2FE
:1055B000013B9AB27B685A857B681B687A681268DF
:1055C000526822F440725A607B68202283F83D20A2
:1055D0007B6800221A637B6893F83E30DBB2402B75
:1055E00007D17B68002283F83E207868FFF7E2FC51
:1055F00018E07B68002283F83E20786807F09CF969
:1056000010E07B685B6A591C7A6851627A6812689C
:105610001269D2B21A707B685B8D9BB2013B9AB261
:105620007B685A85002318461037BD4680BD00BFF1
:1056300080B483B000AF78607B6893F83E30DBB213
:10564000402B16D17B681B6D002B08D17B681B6833
:105650007A68526CD2B202F0FE021A614AE07B68AC
:105660001B687A68526CD2B242F00102D2B21A615F
:1056700040E07B681B69B3F5804F18D17B6893F8D5
:105680003D30DBB2212B08D17B681B687A68526CF5
:10569000D2B202F0FE021A612CE07B681B687A68C5
:1056A000526CD2B242F00102D2B21A6122E07B689F
:1056B0001B6D002B0DD17B681B687A68526C92B20F
:1056C00002F44072D211D2B262F00F02D2B21A6169
:1056D00010E07B681B6D012B0CD17B681B687A681E
:1056E000526C92B202F44072D211D2B262F00E0247
:1056F000D2B21A61002318460C37BD4680BC7047F1
:1057000080B483B000AF78607B681B687A68526CA5
:10571000D2B21A61002318460C37BD4680BC7047D0
:1057200080B48FB000AF78607B6893F83E30DBB216
:105730007B637B68DB6A3B637B681B6BFB627B681C
:1057400093F83D30DBB2222B40F0DE807B681B6D8E
:10575000002B0ED17B6B402B0BD10023BB627B68EF
:105760001B685B69BB627B681B689B69BB62BB6A29
:10577000D5E07B681B6D002B1DD17B681B69B3F5E1
:10578000404F18D100237B627B681B685B697B629A
:105790007B681B689B697B627B6A7B681B687A6895
:1057A0001268126842F480721A607B681B6D5A1C82
:1057B0007B681A65B3E07B685B8D9BB2002B13D1CD
:1057C00000233B627B681B685B693B627B681B68EC
:1057D0009B693B623B6A7B681B687A681268126847
:1057E00042F400721A608BE07B685B8D9BB2012BE8
:1057F00045D13B6B042B26D03B6B082B23D0FB6A97
:10580000122B20D07B68DB6A022B08D07B681B68D8
:105810007A681268126822F480621A6007E07B6876
:105820001B687A681268126842F480621A6000236A
:10583000FB617B681B685B69FB617B681B689B691C
:10584000FB61FB695CE07B681B687A681268126820
:1058500022F480621A600023BB617B681B685B696D
:10586000BB617B681B689B69BB61BB697B681B680C
:105870007A681268126842F400721A6040E07B682D
:105880005B8D9BB2022B28D17B68DB6A022B10D088
:105890007B681B687A681268126822F480621A605A
:1058A0007B681B687A681268126842F400621A60AA
:1058B00007E07B681B687A681268126842F48062AD
:1058C0001A6000237B617B681B685B697B617B6876
:1058D0001B689B697B617B6912E07B681B687A6847
:1058E0001268126842F480621A6000233B617B6890
:1058F0001B685B693B617B681B689B693B613B691B
:105900007B6800221A650AE00023FB607B681B6845
:105910005B69FB607B681B689B69FB60FB6800231D
:1059200018463C37BD4680BC704700BF80B584B088
:1059300000AF78607B6893F83D30DBB2FB607B683A
:105940005B8D9BB2002B36D07B681A687B685B6AE4
:10595000581C796848621B7813617B685B8D9BB229
:10596000013B9AB27B685A857B685B8D9BB2002BAA
:1059700021D1FB68292B1ED17B681B687A681268CD
:10598000526822F480625A607B6893F83D30DBB243
:1059900003F00303BB607B6893F83E30DBB21A462A
:1059A000BB681A437B681A637B68282283F83D2012
:1059B0007868FFF7C9FA002318461037BD4680BD46
:1059C00080B483B000AF78607B685B8D9BB2002BA6
:1059D0000FD07B681A687B685B6A581C79684862DC
:1059E0001B7813617B685B8D9BB2013B9AB27B682D
:1059F0005A85002318460C37BD4680BC704700BF4F
:105A000080B584B000AF78607B6893F83D30DBB23E
:105A1000FB607B685B8D9BB2002B37D07B685B6A39
:105A2000591C7A6851627A6812681269D2B21A7087
:105A30007B685B8D9BB2013B9AB27B685A857B6821
:105A40005B8D9BB2002B21D1FB682A2B1ED17B687A
:105A50001B687A681268526822F480625A607B6818
:105A600093F83D30DBB203F00303BB607B6893F82F
:105A70003E30DBB21A46BB681A437B681A637B6808
:105A8000282283F83D207868FFF768FA002318463B
:105A90001037BD4680BD00BF80B483B000AF7860D2
:105AA0007B685B8D9BB2002B10D07B685B6A591CB6
:105AB0007A6851627A6812681269D2B21A707B6889
:105AC0005B8D9BB2013B9AB27B685A8500231846D6
:105AD0000C37BD4680BC704780B584B000AF78609D
